{
  "contractName": "KYC",
  "abi": [
    {
      "constant": true,
      "inputs": [
        {
          "name": "",
          "type": "address"
        }
      ],
      "name": "banks",
      "outputs": [
        {
          "name": "name",
          "type": "bytes32"
        },
        {
          "name": "bankType",
          "type": "bytes32"
        }
      ],
      "payable": false,
      "stateMutability": "view",
      "type": "function",
      "signature": "0x80c3b8c2"
    },
    {
      "constant": true,
      "inputs": [],
      "name": "owner",
      "outputs": [
        {
          "name": "",
          "type": "address"
        }
      ],
      "payable": false,
      "stateMutability": "view",
      "type": "function",
      "signature": "0x8da5cb5b"
    },
    {
      "constant": false,
      "inputs": [
        {
          "name": "newOwner",
          "type": "address"
        }
      ],
      "name": "transferOwnership",
      "outputs": [],
      "payable": false,
      "stateMutability": "nonpayable",
      "type": "function",
      "signature": "0xf2fde38b"
    },
    {
      "inputs": [],
      "payable": false,
      "stateMutability": "nonpayable",
      "type": "constructor",
      "signature": "constructor"
    },
    {
      "anonymous": false,
      "inputs": [
        {
          "indexed": true,
          "name": "fromBank",
          "type": "address"
        },
        {
          "indexed": true,
          "name": "toBank",
          "type": "address"
        },
        {
          "indexed": false,
          "name": "fromAccount",
          "type": "bytes32"
        },
        {
          "indexed": false,
          "name": "toAccount",
          "type": "bytes32"
        },
        {
          "indexed": false,
          "name": "amount",
          "type": "uint256"
        },
        {
          "indexed": true,
          "name": "txDate",
          "type": "uint256"
        }
      ],
      "name": "ReportedFraudA",
      "type": "event",
      "signature": "0xe10f83fe263ec468a45f6c19bfc43f908e8a8fb1c1ab1ecee970e416042534c9"
    },
    {
      "anonymous": false,
      "inputs": [
        {
          "indexed": false,
          "name": "fromBank",
          "type": "address"
        },
        {
          "indexed": false,
          "name": "toBank",
          "type": "address"
        },
        {
          "indexed": true,
          "name": "fromAccount",
          "type": "bytes32"
        },
        {
          "indexed": true,
          "name": "toAccount",
          "type": "bytes32"
        },
        {
          "indexed": true,
          "name": "amount",
          "type": "uint256"
        },
        {
          "indexed": false,
          "name": "txDate",
          "type": "uint256"
        }
      ],
      "name": "ReportedFraudB",
      "type": "event",
      "signature": "0xdfc43f926e4adbcd2175e352f5d5d370e7fdd58dc8cb5089e5195b74ecd13f63"
    },
    {
      "anonymous": false,
      "inputs": [
        {
          "indexed": false,
          "name": "bankAddress",
          "type": "address"
        },
        {
          "indexed": true,
          "name": "name",
          "type": "bytes32"
        },
        {
          "indexed": true,
          "name": "bankType",
          "type": "bytes32"
        }
      ],
      "name": "BankAdded",
      "type": "event",
      "signature": "0x089eceb7dd85cde666bfb0e97efba1674f337741170f0eb4422e2baac26ecee1"
    },
    {
      "constant": false,
      "inputs": [
        {
          "name": "bankAddress",
          "type": "address"
        },
        {
          "name": "name",
          "type": "bytes32"
        },
        {
          "name": "bankType",
          "type": "bytes32"
        }
      ],
      "name": "addBank",
      "outputs": [],
      "payable": false,
      "stateMutability": "nonpayable",
      "type": "function",
      "signature": "0x57510cfd"
    },
    {
      "constant": false,
      "inputs": [
        {
          "name": "fromBank",
          "type": "address"
        },
        {
          "name": "toBank",
          "type": "address"
        },
        {
          "name": "fromAccount",
          "type": "bytes32"
        },
        {
          "name": "toAccount",
          "type": "bytes32"
        },
        {
          "name": "amount",
          "type": "uint256"
        },
        {
          "name": "txDate",
          "type": "uint256"
        }
      ],
      "name": "reportFraud",
      "outputs": [
        {
          "name": "fraudID",
          "type": "uint256"
        }
      ],
      "payable": false,
      "stateMutability": "nonpayable",
      "type": "function",
      "signature": "0x28a0c3ab"
    }
  ],
  "bytecode": "0x608060405234801561001057600080fd5b50336000806101000a81548173ffffffffffffffffffffffffffffffffffffffff021916908373ffffffffffffffffffffffffffffffffffffffff160217905550600160c060405190810160405280600073ffffffffffffffffffffffffffffffffffffffff168152602001600073ffffffffffffffffffffffffffffffffffffffff16815260200160008019168152602001600080191681526020016000815260200160008152509080600181540180825580915050906001820390600052602060002090600602016000909192909190915060008201518160000160006101000a81548173ffffffffffffffffffffffffffffffffffffffff021916908373ffffffffffffffffffffffffffffffffffffffff16021790555060208201518160010160006101000a81548173ffffffffffffffffffffffffffffffffffffffff021916908373ffffffffffffffffffffffffffffffffffffffff16021790555060408201518160020155606082015181600301556080820151816004015560a08201518160050155505050610817806101ac6000396000f3fe60806040526004361061006d576000357c0100000000000000000000000000000000000000000000000000000000900463ffffffff16806328a0c3ab1461007257806357510cfd1461011f57806380c3b8c2146101845780638da5cb5b146101f0578063f2fde38b14610247575b600080fd5b34801561007e57600080fd5b50610109600480360360c081101561009557600080fd5b81019080803573ffffffffffffffffffffffffffffffffffffffff169060200190929190803573ffffffffffffffffffffffffffffffffffffffff16906020019092919080359060200190929190803590602001909291908035906020019092919080359060200190929190505050610298565b6040518082815260200191505060405180910390f35b34801561012b57600080fd5b506101826004803603606081101561014257600080fd5b81019080803573ffffffffffffffffffffffffffffffffffffffff1690602001909291908035906020019092919080359060200190929190505050610508565b005b34801561019057600080fd5b506101d3600480360360208110156101a757600080fd5b81019080803573ffffffffffffffffffffffffffffffffffffffff169060200190929190505050610644565b604051808381526020018281526020019250505060405180910390f35b3480156101fc57600080fd5b50610205610668565b604051808273ffffffffffffffffffffffffffffffffffffffff1673ffffffffffffffffffffffffffffffffffffffff16815260200191505060405180910390f35b34801561025357600080fd5b506102966004803603602081101561026a57600080fd5b81019080803573ffffffffffffffffffffffffffffffffffffffff16906020019092919050505061068d565b005b60006102a2610762565b60c0604051908101604052808973ffffffffffffffffffffffffffffffffffffffff1681526020018873ffffffffffffffffffffffffffffffffffffffff1681526020018781526020018681526020018581526020018481525090506001819080600181540180825580915050906001820390600052602060002090600602016000909192909190915060008201518160000160006101000a81548173ffffffffffffffffffffffffffffffffffffffff021916908373ffffffffffffffffffffffffffffffffffffffff16021790555060208201518160010160006101000a81548173ffffffffffffffffffffffffffffffffffffffff021916908373ffffffffffffffffffffffffffffffffffffffff16021790555060408201518160020155606082015181600301556080820151816004015560a08201518160050155505050828773ffffffffffffffffffffffffffffffffffffffff168973ffffffffffffffffffffffffffffffffffffffff167fe10f83fe263ec468a45f6c19bfc43f908e8a8fb1c1ab1ecee970e416042534c989898960405180848152602001838152602001828152602001935050505060405180910390a48385877fdfc43f926e4adbcd2175e352f5d5d370e7fdd58dc8cb5089e5195b74ecd13f638b8b88604051808473ffffffffffffffffffffffffffffffffffffffff1673ffffffffffffffffffffffffffffffffffffffff1681526020018373ffffffffffffffffffffffffffffffffffffffff1673ffffffffffffffffffffffffffffffffffffffff168152602001828152602001935050505060405180910390a4509695505050505050565b6000809054906101000a900473ffffffffffffffffffffffffffffffffffffffff1673ffffffffffffffffffffffffffffffffffffffff163373ffffffffffffffffffffffffffffffffffffffff1614151561056357600080fd5b61056b6107cb565b604080519081016040528084815260200183815250905080600260008673ffffffffffffffffffffffffffffffffffffffff1673ffffffffffffffffffffffffffffffffffffffff168152602001908152602001600020600082015181600001556020820151816001015590505081837f089eceb7dd85cde666bfb0e97efba1674f337741170f0eb4422e2baac26ecee186604051808273ffffffffffffffffffffffffffffffffffffffff1673ffffffffffffffffffffffffffffffffffffffff16815260200191505060405180910390a350505050565b60026020528060005260406000206000915090508060000154908060010154905082565b6000809054906101000a900473ffffffffffffffffffffffffffffffffffffffff1681565b6000809054906101000a900473ffffffffffffffffffffffffffffffffffffffff1673ffffffffffffffffffffffffffffffffffffffff163373ffffffffffffffffffffffffffffffffffffffff161415156106e857600080fd5b600073ffffffffffffffffffffffffffffffffffffffff168173ffffffffffffffffffffffffffffffffffffffff1614151561075f57806000806101000a81548173ffffffffffffffffffffffffffffffffffffffff021916908373ffffffffffffffffffffffffffffffffffffffff1602179055505b50565b60c060405190810160405280600073ffffffffffffffffffffffffffffffffffffffff168152602001600073ffffffffffffffffffffffffffffffffffffffff168152602001600080191681526020016000801916815260200160008152602001600081525090565b60408051908101604052806000801916815260200160008019168152509056fea165627a7a723058204f9e3971216cd0620e33d826184a67bd8a1b2bec74669525921775e420c413d60029",
  "source": "pragma solidity >=0.4.21 <0.6.0;\n\nimport \"./Ownable.sol\";\n\ncontract KYC is Ownable {\n\n    event ReportedFraudA(\n        address indexed fromBank,\n        address indexed toBank,\n        bytes32 fromAccount,\n        bytes32 toAccount,\n        uint256 amount,\n        uint256 indexed txDate\n    );\n\n    event ReportedFraudB(\n        address fromBank,\n        address toBank,\n        bytes32 indexed fromAccount,\n        bytes32 indexed toAccount,\n        uint256 indexed amount,\n        uint256 txDate\n    );\n\n    event BankAdded(\n        address bankAddress,\n        bytes32 indexed name,\n        bytes32 indexed bankType\n    );\n\n    struct Bank {\n        bytes32 name;\n        bytes32 bankType;\n    }\n\n    struct Fraud {\n        address fromBank;\n        address toBank;        \n        bytes32 fromAccount;\n        bytes32 toAccount;\n        uint256 amount;\n        uint256 txDate;\n    }\n    \n    Fraud[] frauds;\n\n    //bankEthAddr => bank\n    mapping (address => Bank) public banks;\n\n    constructor() public {\n        //push fraud origin\n        frauds.push(Fraud(address(0x0), address(0x0), \"\", \"\", 0, 0));\n    }\n/*\n    modifier classA () {\n        require (keccak256(abi.encode(members[msg.sender])) == keccak256(abi.encode(\"A\"))); \n        _;\n    }\n\n    modifier classB () {\n        require (keccak256(abi.encode(members[msg.sender])) == keccak256(abi.encode(\"B\")) || keccak256(abi.encode(members[msg.sender])) == keccak256(abi.encode(\"A\"))); \n        _;\n    }\n\n    modifier classC () {\n        require (keccak256(abi.encode(members[msg.sender])) == keccak256(abi.encode(\"C\")) || keccak256(abi.encode(members[msg.sender])) == keccak256(abi.encode(\"B\")) || keccak256(abi.encode(members[msg.sender])) == keccak256(abi.encode(\"A\"))); \n        _; \n    }\n\n    modifier classD () {\n        require (keccak256(abi.encode(members[msg.sender])) == keccak256(abi.encode(\"D\")) || keccak256(abi.encode(members[msg.sender])) == keccak256(abi.encode(\"C\")) || keccak256(abi.encode(members[msg.sender])) == keccak256(abi.encode(\"B\")) || keccak256(abi.encode(members[msg.sender])) == keccak256(abi.encode(\"A\"))); \n        _; \n    }\n*/\n    function addBank (address bankAddress, bytes32 name, bytes32 bankType) public onlyOwner {\n        //require (banks[bankAddress].name==\"\");\n        //assigned role must exist\n        //require (keccak256(abi.encode(role)) == keccak256(abi.encode(\"A\")) || keccak256(abi.encode(role)) == keccak256(abi.encode(\"B\")) || keccak256(abi.encode(role)) == keccak256(abi.encode(\"C\")) || keccak256(abi.encode(role)) == keccak256(abi.encode(\"D\")));\n        \n        Bank memory bank = Bank(name, bankType);\n        banks[bankAddress] = bank;\n        emit BankAdded(bankAddress, name, bankType);\n    }\n\n    function reportFraud (address fromBank, address toBank, bytes32 fromAccount, bytes32 toAccount, uint256 amount, uint256 txDate) external returns(uint256 fraudID) {\n\n        Fraud memory fraud = Fraud(fromBank, toBank, fromAccount, toAccount, amount, txDate);\n        frauds.push(fraud);\n\n        emit ReportedFraudA(fromBank, toBank, fromAccount, toAccount, amount, txDate);\n        emit ReportedFraudB(fromBank, toBank, fromAccount, toAccount, amount, txDate);\n    }\n/*\n    function readFraud (uint256 fraudID) external view returns(address, string memory, string memory, uint256, uint256, uint256) {\n        Fraud memory fraud = frauds[fraudID];\n        return(fraud.bank, fraud.fromAccount, fraud.toAccount, fraud.amount, fraud.fromID, fraud.txDate);\n    }   \n*/\n}",
  "sourcePath": "/Users/dylanbeckwith/Desktop/PIE/contracts/KYC.sol",
  "compiler": {
    "name": "solc",
    "version": "0.5.0+commit.1d4f565a.Emscripten.clang"
  },
  "schemaVersion": "3.0.0",
  "updatedAt": "2019-03-22T17:11:29.038Z",
  "devdoc": {
    "methods": {
      "transferOwnership(address)": {
        "details": "Allows the current owner to transfer control of the contract to a newOwner.",
        "params": {
          "newOwner": "The address to transfer ownership to."
        }
      }
    }
  },
  "userdoc": {
    "methods": {}
  }
}