{
  "contractName": "KYC",
  "abi": [
    {
      "constant": true,
      "inputs": [
        {
          "name": "",
          "type": "address"
        }
      ],
      "name": "banks",
      "outputs": [
        {
          "name": "name",
          "type": "bytes32"
        },
        {
          "name": "bankType",
          "type": "bytes32"
        }
      ],
      "payable": false,
      "stateMutability": "view",
      "type": "function",
      "signature": "0x80c3b8c2"
    },
    {
      "constant": true,
      "inputs": [],
      "name": "owner",
      "outputs": [
        {
          "name": "",
          "type": "address"
        }
      ],
      "payable": false,
      "stateMutability": "view",
      "type": "function",
      "signature": "0x8da5cb5b"
    },
    {
      "constant": false,
      "inputs": [
        {
          "name": "newOwner",
          "type": "address"
        }
      ],
      "name": "transferOwnership",
      "outputs": [],
      "payable": false,
      "stateMutability": "nonpayable",
      "type": "function",
      "signature": "0xf2fde38b"
    },
    {
      "inputs": [],
      "payable": false,
      "stateMutability": "nonpayable",
      "type": "constructor",
      "signature": "constructor"
    },
    {
      "anonymous": false,
      "inputs": [
        {
          "indexed": true,
          "name": "fromBank",
          "type": "address"
        },
        {
          "indexed": true,
          "name": "toBank",
          "type": "address"
        },
        {
          "indexed": false,
          "name": "fromAccount",
          "type": "bytes32"
        },
        {
          "indexed": false,
          "name": "toAccount",
          "type": "bytes32"
        },
        {
          "indexed": false,
          "name": "amount",
          "type": "uint256"
        },
        {
          "indexed": true,
          "name": "txDate",
          "type": "uint256"
        },
        {
          "indexed": false,
          "name": "txId",
          "type": "bytes32"
        }
      ],
      "name": "ReportedFraudA",
      "type": "event",
      "signature": "0x8d64ba809056468af46d4f71fedb444c90ef95822a791ad740e0356555dbb81b"
    },
    {
      "anonymous": false,
      "inputs": [
        {
          "indexed": false,
          "name": "fromBank",
          "type": "address"
        },
        {
          "indexed": false,
          "name": "toBank",
          "type": "address"
        },
        {
          "indexed": true,
          "name": "fromAccount",
          "type": "bytes32"
        },
        {
          "indexed": true,
          "name": "toAccount",
          "type": "bytes32"
        },
        {
          "indexed": false,
          "name": "amount",
          "type": "uint256"
        },
        {
          "indexed": false,
          "name": "txDate",
          "type": "uint256"
        },
        {
          "indexed": true,
          "name": "txId",
          "type": "bytes32"
        }
      ],
      "name": "ReportedFraudB",
      "type": "event",
      "signature": "0x2cdbc8a36aece4e063a58df1c691c74b9d6c7f4f1274590e7cc5d4f727f809f9"
    },
    {
      "anonymous": false,
      "inputs": [
        {
          "indexed": true,
          "name": "bankAddress",
          "type": "address"
        },
        {
          "indexed": true,
          "name": "name",
          "type": "bytes32"
        },
        {
          "indexed": true,
          "name": "bankType",
          "type": "bytes32"
        }
      ],
      "name": "BankAdded",
      "type": "event",
      "signature": "0x089eceb7dd85cde666bfb0e97efba1674f337741170f0eb4422e2baac26ecee1"
    },
    {
      "anonymous": false,
      "inputs": [
        {
          "indexed": true,
          "name": "bankAddress",
          "type": "address"
        },
        {
          "indexed": true,
          "name": "name",
          "type": "bytes32"
        },
        {
          "indexed": true,
          "name": "bankType",
          "type": "bytes32"
        }
      ],
      "name": "BankRemoved",
      "type": "event",
      "signature": "0x03eb480fc5dea052d02ed5bf1a7a5a0cf296f86ece1af2b113bbe5f9105fb5f1"
    },
    {
      "anonymous": false,
      "inputs": [
        {
          "indexed": false,
          "name": "txID",
          "type": "bytes32"
        },
        {
          "indexed": true,
          "name": "toBank",
          "type": "address"
        }
      ],
      "name": "FraudViewed",
      "type": "event",
      "signature": "0x55fc686b3b7bd2ff285f9b942192226322c681872bae13e6eeb01e077b72fe51"
    },
    {
      "constant": false,
      "inputs": [
        {
          "name": "bankAddress",
          "type": "address"
        },
        {
          "name": "name",
          "type": "bytes32"
        },
        {
          "name": "bankType",
          "type": "bytes32"
        }
      ],
      "name": "addBank",
      "outputs": [],
      "payable": false,
      "stateMutability": "nonpayable",
      "type": "function",
      "signature": "0x57510cfd"
    },
    {
      "constant": false,
      "inputs": [
        {
          "name": "bankAddress",
          "type": "address"
        },
        {
          "name": "name",
          "type": "bytes32"
        },
        {
          "name": "bankType",
          "type": "bytes32"
        }
      ],
      "name": "removeBank",
      "outputs": [],
      "payable": false,
      "stateMutability": "nonpayable",
      "type": "function",
      "signature": "0x21a8a852"
    },
    {
      "constant": false,
      "inputs": [
        {
          "name": "fromBank",
          "type": "address"
        },
        {
          "name": "toBank",
          "type": "address"
        },
        {
          "name": "fromAccount",
          "type": "bytes32"
        },
        {
          "name": "toAccount",
          "type": "bytes32"
        },
        {
          "name": "amount",
          "type": "uint256"
        },
        {
          "name": "txDate",
          "type": "uint256"
        },
        {
          "name": "txId",
          "type": "bytes32"
        }
      ],
      "name": "reportFraud",
      "outputs": [],
      "payable": false,
      "stateMutability": "nonpayable",
      "type": "function",
      "signature": "0x0d008d8c"
    },
    {
      "constant": false,
      "inputs": [
        {
          "name": "fromBanks",
          "type": "address[]"
        },
        {
          "name": "toBanks",
          "type": "address[]"
        },
        {
          "name": "fromAccounts",
          "type": "bytes32[]"
        },
        {
          "name": "toAccounts",
          "type": "bytes32[]"
        },
        {
          "name": "amounts",
          "type": "uint256[]"
        },
        {
          "name": "txDates",
          "type": "uint256[]"
        },
        {
          "name": "txIds",
          "type": "bytes32[]"
        }
      ],
      "name": "systematicReport",
      "outputs": [],
      "payable": false,
      "stateMutability": "nonpayable",
      "type": "function",
      "signature": "0xc3d7a995"
    },
    {
      "constant": false,
      "inputs": [
        {
          "name": "txId",
          "type": "bytes32"
        },
        {
          "name": "toBank",
          "type": "address"
        }
      ],
      "name": "viewFraud",
      "outputs": [],
      "payable": false,
      "stateMutability": "nonpayable",
      "type": "function",
      "signature": "0xdbf00ef3"
    }
  ],
  "bytecode": "0x608060405234801561001057600080fd5b50336000806101000a81548173ffffffffffffffffffffffffffffffffffffffff021916908373ffffffffffffffffffffffffffffffffffffffff160217905550600160e060405190810160405280600073ffffffffffffffffffffffffffffffffffffffff168152602001600073ffffffffffffffffffffffffffffffffffffffff1681526020016000801916815260200160008019168152602001600081526020016000815260200160008019168152509080600181540180825580915050906001820390600052602060002090600702016000909192909190915060008201518160000160006101000a81548173ffffffffffffffffffffffffffffffffffffffff021916908373ffffffffffffffffffffffffffffffffffffffff16021790555060208201518160010160006101000a81548173ffffffffffffffffffffffffffffffffffffffff021916908373ffffffffffffffffffffffffffffffffffffffff16021790555060408201518160020155606082015181600301556080820151816004015560a0820151816005015560c08201518160060155505050610d9f806101c06000396000f3fe60806040526004361061008e576000357c0100000000000000000000000000000000000000000000000000000000900463ffffffff1680630d008d8c1461009357806321a8a8521461013657806357510cfd1461019b57806380c3b8c2146102005780638da5cb5b1461026c578063c3d7a995146102c3578063dbf00ef314610547578063f2fde38b146105a2575b600080fd5b34801561009f57600080fd5b50610134600480360360e08110156100b657600080fd5b81019080803573ffffffffffffffffffffffffffffffffffffffff169060200190929190803573ffffffffffffffffffffffffffffffffffffffff16906020019092919080359060200190929190803590602001909291908035906020019092919080359060200190929190803590602001909291905050506105f3565b005b34801561014257600080fd5b506101996004803603606081101561015957600080fd5b81019080803573ffffffffffffffffffffffffffffffffffffffff1690602001909291908035906020019092919080359060200190929190505050610880565b005b3480156101a757600080fd5b506101fe600480360360608110156101be57600080fd5b81019080803573ffffffffffffffffffffffffffffffffffffffff1690602001909291908035906020019092919080359060200190929190505050610949565b005b34801561020c57600080fd5b5061024f6004803603602081101561022357600080fd5b81019080803573ffffffffffffffffffffffffffffffffffffffff169060200190929190505050610a65565b604051808381526020018281526020019250505060405180910390f35b34801561027857600080fd5b50610281610a89565b604051808273ffffffffffffffffffffffffffffffffffffffff1673ffffffffffffffffffffffffffffffffffffffff16815260200191505060405180910390f35b3480156102cf57600080fd5b50610545600480360360e08110156102e657600080fd5b810190808035906020019064010000000081111561030357600080fd5b82018360208201111561031557600080fd5b8035906020019184602083028401116401000000008311171561033757600080fd5b90919293919293908035906020019064010000000081111561035857600080fd5b82018360208201111561036a57600080fd5b8035906020019184602083028401116401000000008311171561038c57600080fd5b9091929391929390803590602001906401000000008111156103ad57600080fd5b8201836020820111156103bf57600080fd5b803590602001918460208302840111640100000000831117156103e157600080fd5b90919293919293908035906020019064010000000081111561040257600080fd5b82018360208201111561041457600080fd5b8035906020019184602083028401116401000000008311171561043657600080fd5b90919293919293908035906020019064010000000081111561045757600080fd5b82018360208201111561046957600080fd5b8035906020019184602083028401116401000000008311171561048b57600080fd5b9091929391929390803590602001906401000000008111156104ac57600080fd5b8201836020820111156104be57600080fd5b803590602001918460208302840111640100000000831117156104e057600080fd5b90919293919293908035906020019064010000000081111561050157600080fd5b82018360208201111561051357600080fd5b8035906020019184602083028401116401000000008311171561053557600080fd5b9091929391929390505050610aae565b005b34801561055357600080fd5b506105a06004803603604081101561056a57600080fd5b8101908080359060200190929190803573ffffffffffffffffffffffffffffffffffffffff169060200190929190505050610bb9565b005b3480156105ae57600080fd5b506105f1600480360360208110156105c557600080fd5b81019080803573ffffffffffffffffffffffffffffffffffffffff169060200190929190505050610c0b565b005b6105fb610ce0565b60e0604051908101604052808973ffffffffffffffffffffffffffffffffffffffff1681526020018873ffffffffffffffffffffffffffffffffffffffff1681526020018781526020018681526020018581526020018481526020018381525090506001819080600181540180825580915050906001820390600052602060002090600702016000909192909190915060008201518160000160006101000a81548173ffffffffffffffffffffffffffffffffffffffff021916908373ffffffffffffffffffffffffffffffffffffffff16021790555060208201518160010160006101000a81548173ffffffffffffffffffffffffffffffffffffffff021916908373ffffffffffffffffffffffffffffffffffffffff16021790555060408201518160020155606082015181600301556080820151816004015560a0820151816005015560c08201518160060155505050828773ffffffffffffffffffffffffffffffffffffffff168973ffffffffffffffffffffffffffffffffffffffff167f8d64ba809056468af46d4f71fedb444c90ef95822a791ad740e0356555dbb81b898989886040518085815260200184815260200183815260200182815260200194505050505060405180910390a48185877f2cdbc8a36aece4e063a58df1c691c74b9d6c7f4f1274590e7cc5d4f727f809f98b8b8989604051808573ffffffffffffffffffffffffffffffffffffffff1673ffffffffffffffffffffffffffffffffffffffff1681526020018473ffffffffffffffffffffffffffffffffffffffff1673ffffffffffffffffffffffffffffffffffffffff16815260200183815260200182815260200194505050505060405180910390a45050505050505050565b610888610d53565b6040805190810160405280600080191681526020016000801916815250905080600260008673ffffffffffffffffffffffffffffffffffffffff1673ffffffffffffffffffffffffffffffffffffffff168152602001908152602001600020600082015181600001556020820151816001015590505081838573ffffffffffffffffffffffffffffffffffffffff167f03eb480fc5dea052d02ed5bf1a7a5a0cf296f86ece1af2b113bbe5f9105fb5f160405160405180910390a450505050565b6000809054906101000a900473ffffffffffffffffffffffffffffffffffffffff1673ffffffffffffffffffffffffffffffffffffffff163373ffffffffffffffffffffffffffffffffffffffff161415156109a457600080fd5b6109ac610d53565b604080519081016040528084815260200183815250905080600260008673ffffffffffffffffffffffffffffffffffffffff1673ffffffffffffffffffffffffffffffffffffffff168152602001908152602001600020600082015181600001556020820151816001015590505081838573ffffffffffffffffffffffffffffffffffffffff167f089eceb7dd85cde666bfb0e97efba1674f337741170f0eb4422e2baac26ecee160405160405180910390a450505050565b60026020528060005260406000206000915090508060000154908060010154905082565b6000809054906101000a900473ffffffffffffffffffffffffffffffffffffffff1681565b60005b8e8e90508160ff161015610ba857610b9b8f8f8360ff168181101515610ad357fe5b9050602002013573ffffffffffffffffffffffffffffffffffffffff168e8e8460ff168181101515610b0157fe5b9050602002013573ffffffffffffffffffffffffffffffffffffffff168d8d8560ff168181101515610b2f57fe5b905060200201358c8c8660ff168181101515610b4757fe5b905060200201358b8b8760ff168181101515610b5f57fe5b905060200201358a8a8860ff168181101515610b7757fe5b9050602002013589898960ff168181101515610b8f57fe5b905060200201356105f3565b8080600101915050610ab1565b505050505050505050505050505050565b8073ffffffffffffffffffffffffffffffffffffffff167f55fc686b3b7bd2ff285f9b942192226322c681872bae13e6eeb01e077b72fe51836040518082815260200191505060405180910390a25050565b6000809054906101000a900473ffffffffffffffffffffffffffffffffffffffff1673ffffffffffffffffffffffffffffffffffffffff163373ffffffffffffffffffffffffffffffffffffffff16141515610c6657600080fd5b600073ffffffffffffffffffffffffffffffffffffffff168173ffffffffffffffffffffffffffffffffffffffff16141515610cdd57806000806101000a81548173ffffffffffffffffffffffffffffffffffffffff021916908373ffffffffffffffffffffffffffffffffffffffff1602179055505b50565b60e060405190810160405280600073ffffffffffffffffffffffffffffffffffffffff168152602001600073ffffffffffffffffffffffffffffffffffffffff16815260200160008019168152602001600080191681526020016000815260200160008152602001600080191681525090565b60408051908101604052806000801916815260200160008019168152509056fea165627a7a72305820f2817ab7265c38d09743e965132ea86049ac873f4574c84f381999a8a798356b0029",
  "source": "pragma solidity >=0.4.21 <0.6.0;\n\nimport \"./Ownable.sol\";\n\ncontract KYC is Ownable {\n\n    event ReportedFraudA(\n        address indexed fromBank,\n        address indexed toBank,\n        bytes32 fromAccount,\n        bytes32 toAccount,\n        uint256 amount,\n        uint256 indexed txDate,\n        bytes32 txId\n    );\n\n    event ReportedFraudB(\n        address fromBank,\n        address toBank,\n        bytes32 indexed fromAccount,\n        bytes32 indexed toAccount,\n        uint256 amount,\n        uint256 txDate,\n        bytes32 indexed txId\n    );\n\n    event BankAdded(\n        address indexed bankAddress,\n        bytes32 indexed name,\n        bytes32 indexed bankType\n    );\n\n    event BankRemoved(\n        address indexed bankAddress,\n        bytes32 indexed name,\n        bytes32 indexed bankType\n        );\n\n    event FraudViewed(\n        bytes32 txID,\n        address indexed toBank\n    );\n\n    struct Bank {\n        bytes32 name;\n        bytes32 bankType;\n    }\n\n    struct Fraud {\n        address fromBank;\n        address toBank;        \n        bytes32 fromAccount;\n        bytes32 toAccount;\n        uint256 amount;\n        uint256 txDate;\n        bytes32 txId;\n    }\n    \n    Fraud[] frauds;\n\n    //bankEthAddr => bank\n    mapping (address => Bank) public banks;\n\n    constructor() public {\n        //push fraud origin\n        frauds.push(Fraud(address(0x0), address(0x0), \"\", \"\", 0, 0, \"\"));\n    }\n/*\n    modifier classA () {\n        require (keccak256(abi.encode(members[msg.sender])) == keccak256(abi.encode(\"A\"))); \n        _;\n    }\n\n    modifier classB () {\n        require (keccak256(abi.encode(members[msg.sender])) == keccak256(abi.encode(\"B\")) || keccak256(abi.encode(members[msg.sender])) == keccak256(abi.encode(\"A\"))); \n        _;\n    }\n\n    modifier classC () {\n        require (keccak256(abi.encode(members[msg.sender])) == keccak256(abi.encode(\"C\")) || keccak256(abi.encode(members[msg.sender])) == keccak256(abi.encode(\"B\")) || keccak256(abi.encode(members[msg.sender])) == keccak256(abi.encode(\"A\"))); \n        _; \n    }\n\n    modifier classD () {\n        require (keccak256(abi.encode(members[msg.sender])) == keccak256(abi.encode(\"D\")) || keccak256(abi.encode(members[msg.sender])) == keccak256(abi.encode(\"C\")) || keccak256(abi.encode(members[msg.sender])) == keccak256(abi.encode(\"B\")) || keccak256(abi.encode(members[msg.sender])) == keccak256(abi.encode(\"A\"))); \n        _; \n    }\n*/\n    function addBank (address bankAddress, bytes32 name, bytes32 bankType) external onlyOwner {\n        //require (banks[bankAddress].name==\"\");\n        //assigned role must exist\n        //require (keccak256(abi.encode(role)) == keccak256(abi.encode(\"A\")) || keccak256(abi.encode(role)) == keccak256(abi.encode(\"B\")) || keccak256(abi.encode(role)) == keccak256(abi.encode(\"C\")) || keccak256(abi.encode(role)) == keccak256(abi.encode(\"D\")));\n        \n        Bank memory bank = Bank(name, bankType);\n        banks[bankAddress] = bank;\n        emit BankAdded(bankAddress, name, bankType);\n    }\n\n    function removeBank (address bankAddress, bytes32 name, bytes32 bankType) external {\n        Bank memory bank = Bank(\"\",\"\");\n        banks[bankAddress] = bank;\n        emit BankRemoved(bankAddress, name, bankType);      \n    }\n    \n\n    function reportFraud (address fromBank, address toBank, bytes32 fromAccount, bytes32 toAccount, uint256 amount, uint256 txDate, bytes32 txId) public {\n\n        Fraud memory fraud = Fraud(fromBank, toBank, fromAccount, toAccount, amount, txDate, txId);\n        frauds.push(fraud);\n\n        emit ReportedFraudA(fromBank, toBank, fromAccount, toAccount, amount, txDate, txId);\n        emit ReportedFraudB(fromBank, toBank, fromAccount, toAccount, amount, txDate, txId);\n    }\n\n    function systematicReport (address[] calldata fromBanks, address[] calldata toBanks, bytes32[] calldata fromAccounts, bytes32[] calldata toAccounts, uint256[] calldata amounts, uint256[] calldata txDates, bytes32[] calldata txIds) external {\n        for (uint8 i; i < fromBanks.length; i++) {\n            reportFraud(fromBanks[i], toBanks[i], fromAccounts[i], toAccounts[i], amounts[i], txDates[i], txIds[i]);\n        }\n    }\n\n    function viewFraud (bytes32 txId, address toBank) external { emit FraudViewed(txId, toBank); }\n    \n/*\n    function readFraud (uint256 fraudID) external view returns(address, string memory, string memory, uint256, uint256, uint256) {\n        Fraud memory fraud = frauds[fraudID];\n        return(fraud.bank, fraud.fromAccount, fraud.toAccount, fraud.amount, fraud.fromID, fraud.txDate);\n    }   \n*/\n}",
  "sourcePath": "/Users/dylanbeckwith/Desktop/PIE/contracts/KYC.sol",
  "compiler": {
    "name": "solc",
    "version": "0.5.0+commit.1d4f565a.Emscripten.clang"
  },
  "schemaVersion": "3.0.0",
  "updatedAt": "2019-04-16T17:24:28.677Z",
  "devdoc": {
    "methods": {
      "transferOwnership(address)": {
        "details": "Allows the current owner to transfer control of the contract to a newOwner.",
        "params": {
          "newOwner": "The address to transfer ownership to."
        }
      }
    }
  },
  "userdoc": {
    "methods": {}
  }
}