{
  "contractName": "KYC",
  "abi": [
    {
      "constant": true,
      "inputs": [],
      "name": "owner",
      "outputs": [
        {
          "name": "",
          "type": "address"
        }
      ],
      "payable": false,
      "stateMutability": "view",
      "type": "function",
      "signature": "0x8da5cb5b"
    },
    {
      "constant": false,
      "inputs": [
        {
          "name": "newOwner",
          "type": "address"
        }
      ],
      "name": "transferOwnership",
      "outputs": [],
      "payable": false,
      "stateMutability": "nonpayable",
      "type": "function",
      "signature": "0xf2fde38b"
    },
    {
      "inputs": [],
      "payable": false,
      "stateMutability": "nonpayable",
      "type": "constructor",
      "signature": "constructor"
    },
    {
      "anonymous": false,
      "inputs": [
        {
          "indexed": false,
          "name": "fraudID",
          "type": "uint256"
        },
        {
          "indexed": true,
          "name": "bank",
          "type": "address"
        },
        {
          "indexed": false,
          "name": "accountNumber",
          "type": "string"
        },
        {
          "indexed": false,
          "name": "routingNumber",
          "type": "string"
        },
        {
          "indexed": false,
          "name": "amount",
          "type": "uint256"
        },
        {
          "indexed": true,
          "name": "fromID",
          "type": "uint256"
        },
        {
          "indexed": false,
          "name": "txDate",
          "type": "uint256"
        },
        {
          "indexed": true,
          "name": "reportedDate",
          "type": "uint256"
        }
      ],
      "name": "ReportedFraud",
      "type": "event",
      "signature": "0x1e34d5332d0b83ceb0ce9eed8ef8bde1703cfdcf21396f2bfacc0850d87d2601"
    },
    {
      "constant": false,
      "inputs": [
        {
          "name": "bankAddress",
          "type": "address"
        },
        {
          "name": "name",
          "type": "string"
        },
        {
          "name": "bankType",
          "type": "string"
        }
      ],
      "name": "addMember",
      "outputs": [],
      "payable": false,
      "stateMutability": "nonpayable",
      "type": "function",
      "signature": "0x76c19546"
    },
    {
      "constant": false,
      "inputs": [
        {
          "name": "bank",
          "type": "address"
        },
        {
          "name": "accountNumber",
          "type": "string"
        },
        {
          "name": "routingNumber",
          "type": "string"
        },
        {
          "name": "amount",
          "type": "uint256"
        },
        {
          "name": "fromID",
          "type": "uint256"
        },
        {
          "name": "txDate",
          "type": "uint256"
        },
        {
          "name": "reportedDate",
          "type": "uint256"
        }
      ],
      "name": "reportFraud",
      "outputs": [
        {
          "name": "fraudID",
          "type": "uint256"
        }
      ],
      "payable": false,
      "stateMutability": "nonpayable",
      "type": "function",
      "signature": "0x70b21f76"
    },
    {
      "constant": true,
      "inputs": [
        {
          "name": "fraudID",
          "type": "uint256"
        }
      ],
      "name": "readFraud",
      "outputs": [
        {
          "name": "",
          "type": "address"
        },
        {
          "name": "",
          "type": "string"
        },
        {
          "name": "",
          "type": "string"
        },
        {
          "name": "",
          "type": "uint256"
        },
        {
          "name": "",
          "type": "uint256"
        },
        {
          "name": "",
          "type": "uint256"
        }
      ],
      "payable": false,
      "stateMutability": "view",
      "type": "function",
      "signature": "0xcd43d94e"
    }
  ],
  "bytecode": "0x608060405234801561001057600080fd5b50336000806101000a81548173ffffffffffffffffffffffffffffffffffffffff021916908373ffffffffffffffffffffffffffffffffffffffff160217905550600160c060405190810160405280600073ffffffffffffffffffffffffffffffffffffffff1681526020016020604051908101604052806000815250815260200160206040519081016040528060008152508152602001600081526020016000815260200160008152509080600181540180825580915050906001820390600052602060002090600602016000909192909190915060008201518160000160006101000a81548173ffffffffffffffffffffffffffffffffffffffff021916908373ffffffffffffffffffffffffffffffffffffffff160217905550602082015181600101908051906020019061014992919061018d565b50604082015181600201908051906020019061016692919061018d565b50606082015181600301556080820151816004015560a08201518160050155505050610232565b828054600181600116156101000203166002900490600052602060002090601f016020900481019282601f106101ce57805160ff19168380011785556101fc565b828001600101855582156101fc579182015b828111156101fb5782518255916020019190600101906101e0565b5b509050610209919061020d565b5090565b61022f91905b8082111561022b576000816000905550600101610213565b5090565b90565b610d30806102416000396000f3fe60806040526004361061006d576000357c0100000000000000000000000000000000000000000000000000000000900463ffffffff16806370b21f761461007257806376c19546146101a95780638da5cb5b14610328578063cd43d94e1461037f578063f2fde38b146104e7575b600080fd5b34801561007e57600080fd5b50610193600480360360e081101561009557600080fd5b81019080803573ffffffffffffffffffffffffffffffffffffffff169060200190929190803590602001906401000000008111156100d257600080fd5b8201836020820111156100e457600080fd5b8035906020019184600183028401116401000000008311171561010657600080fd5b90919293919293908035906020019064010000000081111561012757600080fd5b82018360208201111561013957600080fd5b8035906020019184600183028401116401000000008311171561015b57600080fd5b909192939192939080359060200190929190803590602001909291908035906020019092919080359060200190929190505050610538565b6040518082815260200191505060405180910390f35b3480156101b557600080fd5b50610326600480360360608110156101cc57600080fd5b81019080803573ffffffffffffffffffffffffffffffffffffffff1690602001909291908035906020019064010000000081111561020957600080fd5b82018360208201111561021b57600080fd5b8035906020019184600183028401116401000000008311171561023d57600080fd5b91908080601f016020809104026020016040519081016040528093929190818152602001838380828437600081840152601f19601f820116905080830192505050505050509192919290803590602001906401000000008111156102a057600080fd5b8201836020820111156102b257600080fd5b803590602001918460018302840111640100000000831117156102d457600080fd5b91908080601f016020809104026020016040519081016040528093929190818152602001838380828437600081840152601f19601f8201169050808301925050505050505091929192905050506107d2565b005b34801561033457600080fd5b5061033d6108cf565b604051808273ffffffffffffffffffffffffffffffffffffffff1673ffffffffffffffffffffffffffffffffffffffff16815260200191505060405180910390f35b34801561038b57600080fd5b506103b8600480360360208110156103a257600080fd5b81019080803590602001909291905050506108f4565b604051808773ffffffffffffffffffffffffffffffffffffffff1673ffffffffffffffffffffffffffffffffffffffff1681526020018060200180602001868152602001858152602001848152602001838103835288818151815260200191508051906020019080838360005b83811015610440578082015181840152602081019050610425565b50505050905090810190601f16801561046d5780820380516001836020036101000a031916815260200191505b50838103825287818151815260200191508051906020019080838360005b838110156104a657808201518184015260208101905061048b565b50505050905090810190601f1680156104d35780820380516001836020036101000a031916815260200191505b509850505050505050505060405180910390f35b3480156104f357600080fd5b506105366004803603602081101561050a57600080fd5b81019080803573ffffffffffffffffffffffffffffffffffffffff169060200190929190505050610b23565b005b60006001805490509050808410151561055057600080fd5b600042905061055d610bf8565b60c0604051908101604052808d73ffffffffffffffffffffffffffffffffffffffff1681526020018c8c8080601f016020809104026020016040519081016040528093929190818152602001838380828437600081840152601f19601f8201169050808301925050505050505081526020018a8a8080601f016020809104026020016040519081016040528093929190818152602001838380828437600081840152601f19601f8201169050808301925050505050505081526020018881526020018781526020018381525090506001819080600181540180825580915050906001820390600052602060002090600602016000909192909190915060008201518160000160006101000a81548173ffffffffffffffffffffffffffffffffffffffff021916908373ffffffffffffffffffffffffffffffffffffffff16021790555060208201518160010190805190602001906106bc929190610c45565b5060408201518160020190805190602001906106d9929190610c45565b50606082015181600301556080820151816004015560a0820151816005015550505083868d73ffffffffffffffffffffffffffffffffffffffff167f1e34d5332d0b83ceb0ce9eed8ef8bde1703cfdcf21396f2bfacc0850d87d2601868f8f8f8f8f8e6040518088815260200180602001806020018581526020018481526020018381038352898982818152602001925080828437600081840152601f19601f8201169050808301925050508381038252878782818152602001925080828437600081840152601f19601f820116905080830192505050995050505050505050505060405180910390a450509998505050505050505050565b6000809054906101000a900473ffffffffffffffffffffffffffffffffffffffff1673ffffffffffffffffffffffffffffffffffffffff163373ffffffffffffffffffffffffffffffffffffffff1614151561082d57600080fd5b610835610cc5565b604080519081016040528084815260200183815250905080600260008673ffffffffffffffffffffffffffffffffffffffff1673ffffffffffffffffffffffffffffffffffffffff16815260200190815260200160002060008201518160000190805190602001906108a8929190610c45565b5060208201518160010190805190602001906108c5929190610c45565b5090505050505050565b6000809054906101000a900473ffffffffffffffffffffffffffffffffffffffff1681565b60006060806000806000610906610bf8565b60018881548110151561091557fe5b906000526020600020906006020160c060405190810160405290816000820160009054906101000a900473ffffffffffffffffffffffffffffffffffffffff1673ffffffffffffffffffffffffffffffffffffffff1673ffffffffffffffffffffffffffffffffffffffff168152602001600182018054600181600116156101000203166002900480601f016020809104026020016040519081016040528092919081815260200182805460018160011615610100020316600290048015610a1e5780601f106109f357610100808354040283529160200191610a1e565b820191906000526020600020905b815481529060010190602001808311610a0157829003601f168201915b50505050508152602001600282018054600181600116156101000203166002900480601f016020809104026020016040519081016040528092919081815260200182805460018160011615610100020316600290048015610ac05780601f10610a9557610100808354040283529160200191610ac0565b820191906000526020600020905b815481529060010190602001808311610aa357829003601f168201915b5050505050815260200160038201548152602001600482015481526020016005820154815250509050806000015181602001518260400151836060015184608001518560a001518494508393509650965096509650965096505091939550919395565b6000809054906101000a900473ffffffffffffffffffffffffffffffffffffffff1673ffffffffffffffffffffffffffffffffffffffff163373ffffffffffffffffffffffffffffffffffffffff16141515610b7e57600080fd5b600073ffffffffffffffffffffffffffffffffffffffff168173ffffffffffffffffffffffffffffffffffffffff16141515610bf557806000806101000a81548173ffffffffffffffffffffffffffffffffffffffff021916908373ffffffffffffffffffffffffffffffffffffffff1602179055505b50565b60c060405190810160405280600073ffffffffffffffffffffffffffffffffffffffff16815260200160608152602001606081526020016000815260200160008152602001600081525090565b828054600181600116156101000203166002900490600052602060002090601f016020900481019282601f10610c8657805160ff1916838001178555610cb4565b82800160010185558215610cb4579182015b82811115610cb3578251825591602001919060010190610c98565b5b509050610cc19190610cdf565b5090565b604080519081016040528060608152602001606081525090565b610d0191905b80821115610cfd576000816000905550600101610ce5565b5090565b9056fea165627a7a72305820ff0949259b5cb367b0c72e07b1af0ba6050cfcc80f77bfda3b25f813fabdc9280029",
  "source": "pragma solidity >=0.4.21 <0.6.0;\n\nimport \"./Ownable.sol\";\n\ncontract KYC is Ownable {\n\n    event ReportedFraud(\n        uint256 fraudID,\n        address indexed bank,\n        string accountNumber,\n        string routingNumber,\n        uint256 amount,\n        uint256 indexed fromID,\n        uint256 txDate,\n        uint256 indexed reportedDate\n    );\n\n    struct Bank {\n        string name;\n        string bankType;\n    }\n\n    struct Fraud {\n        address bank;\n        string accountNumber;\n        string routingNumber;\n        uint256 amount;\n        uint256 fromID;\n        uint256 timestamp;\n    }\n    \n    Fraud[] frauds;\n\n    //bankEthAddr => bank\n    mapping (address => Bank) banks;\n  //  uint8 numberOfMembers;\n\n    constructor() public {\n        //push fraud origin\n        frauds.push(Fraud(address(0x0), \"\", \"\", 0, 0, 0));\n    }\n/*\n    modifier classA () {\n        require (keccak256(abi.encode(members[msg.sender])) == keccak256(abi.encode(\"A\"))); \n        _;\n    }\n\n    modifier classB () {\n        require (keccak256(abi.encode(members[msg.sender])) == keccak256(abi.encode(\"B\")) || keccak256(abi.encode(members[msg.sender])) == keccak256(abi.encode(\"A\"))); \n        _;\n    }\n\n    modifier classC () {\n        require (keccak256(abi.encode(members[msg.sender])) == keccak256(abi.encode(\"C\")) || keccak256(abi.encode(members[msg.sender])) == keccak256(abi.encode(\"B\")) || keccak256(abi.encode(members[msg.sender])) == keccak256(abi.encode(\"A\"))); \n        _; \n    }\n\n    modifier classD () {\n        require (keccak256(abi.encode(members[msg.sender])) == keccak256(abi.encode(\"D\")) || keccak256(abi.encode(members[msg.sender])) == keccak256(abi.encode(\"C\")) || keccak256(abi.encode(members[msg.sender])) == keccak256(abi.encode(\"B\")) || keccak256(abi.encode(members[msg.sender])) == keccak256(abi.encode(\"A\"))); \n        _; \n    }\n*/\n    function addMember (address bankAddress, string memory name, string memory bankType) public onlyOwner {\n        //total members\n       // require (numberOfMembers < 55);\n       // require bank doesnt exist at this address\n        //assigned role must exist\n        //require (keccak256(abi.encode(role)) == keccak256(abi.encode(\"A\")) || keccak256(abi.encode(role)) == keccak256(abi.encode(\"B\")) || keccak256(abi.encode(role)) == keccak256(abi.encode(\"C\")) || keccak256(abi.encode(role)) == keccak256(abi.encode(\"D\")));\n        \n       // numberOfMembers++;\n        Bank memory bank = Bank(name, bankType);\n        banks[bankAddress] = bank;\n    }\n\n    function reportFraud (address bank, string calldata accountNumber, string calldata routingNumber, uint256 amount, uint256 fromID, uint256 txDate, uint256 reportedDate) external returns(uint256 fraudID) {\n        fraudID = frauds.length;\n        require (fromID < fraudID);\n\n        uint256 time = now;\n\n        Fraud memory fraud = Fraud(bank, accountNumber, routingNumber, amount, fromID, time);\n        frauds.push(fraud);\n\n        emit ReportedFraud(fraudID, bank, accountNumber, routingNumber, amount, fromID, txDate, reportedDate);\n    }\n\n    function readFraud (uint256 fraudID) external view returns(address, string memory, string memory, uint256, uint256, uint256) {\n        Fraud memory fraud = frauds[fraudID];\n        return(fraud.bank, fraud.accountNumber, fraud.routingNumber, fraud.amount, fraud.fromID, fraud.timestamp);\n    }   \n\n\n}",
  "sourcePath": "/Users/dylanbeckwith/Desktop/PIE/contracts/KYC.sol",
  "compiler": {
    "name": "solc",
    "version": "0.5.0+commit.1d4f565a.Emscripten.clang"
  },
  "schemaVersion": "3.0.0",
  "updatedAt": "2019-03-15T18:49:15.261Z",
  "devdoc": {
    "methods": {
      "transferOwnership(address)": {
        "details": "Allows the current owner to transfer control of the contract to a newOwner.",
        "params": {
          "newOwner": "The address to transfer ownership to."
        }
      }
    }
  },
  "userdoc": {
    "methods": {}
  }
}