{
  "contractName": "KYC",
  "abi": [
    {
      "constant": true,
      "inputs": [],
      "name": "owner",
      "outputs": [
        {
          "name": "",
          "type": "address"
        }
      ],
      "payable": false,
      "stateMutability": "view",
      "type": "function",
      "signature": "0x8da5cb5b"
    },
    {
      "constant": false,
      "inputs": [
        {
          "name": "newOwner",
          "type": "address"
        }
      ],
      "name": "transferOwnership",
      "outputs": [],
      "payable": false,
      "stateMutability": "nonpayable",
      "type": "function",
      "signature": "0xf2fde38b"
    },
    {
      "inputs": [],
      "payable": false,
      "stateMutability": "nonpayable",
      "type": "constructor",
      "signature": "constructor"
    },
    {
      "anonymous": false,
      "inputs": [
        {
          "indexed": true,
          "name": "error",
          "type": "uint256"
        },
        {
          "indexed": false,
          "name": "fraudID",
          "type": "uint256"
        },
        {
          "indexed": false,
          "name": "bank",
          "type": "address"
        },
        {
          "indexed": false,
          "name": "accountNumber",
          "type": "string"
        },
        {
          "indexed": false,
          "name": "routingNumber",
          "type": "string"
        },
        {
          "indexed": false,
          "name": "amount",
          "type": "uint256"
        },
        {
          "indexed": true,
          "name": "fromID",
          "type": "uint256"
        },
        {
          "indexed": false,
          "name": "time",
          "type": "uint256"
        }
      ],
      "name": "ReportedFraud",
      "type": "event",
      "signature": "0x36b2bb56b7d3a0c8f623772795fd2312f550bb3013f97b17b8f61512449bd64f"
    },
    {
      "constant": false,
      "inputs": [
        {
          "name": "member",
          "type": "address"
        },
        {
          "name": "role",
          "type": "string"
        }
      ],
      "name": "addMember",
      "outputs": [],
      "payable": false,
      "stateMutability": "nonpayable",
      "type": "function",
      "signature": "0xc127c247"
    },
    {
      "constant": false,
      "inputs": [
        {
          "name": "name",
          "type": "string"
        },
        {
          "name": "addr",
          "type": "string"
        }
      ],
      "name": "addClient",
      "outputs": [],
      "payable": false,
      "stateMutability": "nonpayable",
      "type": "function",
      "signature": "0x98173ff4"
    },
    {
      "constant": true,
      "inputs": [
        {
          "name": "name",
          "type": "string"
        }
      ],
      "name": "getClientAddr",
      "outputs": [
        {
          "name": "addr",
          "type": "string"
        }
      ],
      "payable": false,
      "stateMutability": "view",
      "type": "function",
      "signature": "0x9401229b"
    },
    {
      "constant": false,
      "inputs": [
        {
          "name": "bank",
          "type": "address"
        },
        {
          "name": "accountNumber",
          "type": "string"
        },
        {
          "name": "routingNumber",
          "type": "string"
        },
        {
          "name": "amount",
          "type": "uint256"
        },
        {
          "name": "fromID",
          "type": "uint256"
        }
      ],
      "name": "reportFraud",
      "outputs": [
        {
          "name": "fraudID",
          "type": "uint256"
        }
      ],
      "payable": false,
      "stateMutability": "nonpayable",
      "type": "function",
      "signature": "0xa5856f64"
    },
    {
      "constant": true,
      "inputs": [
        {
          "name": "fraudID",
          "type": "uint256"
        }
      ],
      "name": "readFraud",
      "outputs": [
        {
          "name": "",
          "type": "address"
        },
        {
          "name": "",
          "type": "string"
        },
        {
          "name": "",
          "type": "string"
        },
        {
          "name": "",
          "type": "uint256"
        },
        {
          "name": "",
          "type": "uint256"
        },
        {
          "name": "",
          "type": "uint256"
        }
      ],
      "payable": false,
      "stateMutability": "view",
      "type": "function",
      "signature": "0xcd43d94e"
    }
  ],
  "bytecode": "0x60806040523480156200001157600080fd5b50336000806101000a81548173ffffffffffffffffffffffffffffffffffffffff021916908373ffffffffffffffffffffffffffffffffffffffff160217905550600160c060405190810160405280600073ffffffffffffffffffffffffffffffffffffffff1681526020016020604051908101604052806000815250815260200160206040519081016040528060008152508152602001600081526020016000815260200160008152509080600181540180825580915050906001820390600052602060002090600602016000909192909190915060008201518160000160006101000a81548173ffffffffffffffffffffffffffffffffffffffff021916908373ffffffffffffffffffffffffffffffffffffffff16021790555060208201518160010190805190602001906200014c92919062000193565b5060408201518160020190805190602001906200016b92919062000193565b50606082015181600301556080820151816004015560a0820151816005015550505062000242565b828054600181600116156101000203166002900490600052602060002090601f016020900481019282601f10620001d657805160ff191683800117855562000207565b8280016001018555821562000207579182015b8281111562000206578251825591602001919060010190620001e9565b5b5090506200021691906200021a565b5090565b6200023f91905b808211156200023b57600081600090555060010162000221565b5090565b90565b611bec80620002526000396000f3fe608060405260043610610083576000357c0100000000000000000000000000000000000000000000000000000000900463ffffffff1680638da5cb5b146100885780639401229b146100df57806398173ff4146101de578063a5856f64146102b9578063c127c247146103dc578063cd43d94e146104c4578063f2fde38b1461062c575b600080fd5b34801561009457600080fd5b5061009d61067d565b604051808273ffffffffffffffffffffffffffffffffffffffff1673ffffffffffffffffffffffffffffffffffffffff16815260200191505060405180910390f35b3480156100eb57600080fd5b506101636004803603602081101561010257600080fd5b810190808035906020019064010000000081111561011f57600080fd5b82018360208201111561013157600080fd5b8035906020019184600183028401116401000000008311171561015357600080fd5b90919293919293905050506106a2565b6040518080602001828103825283818151815260200191508051906020019080838360005b838110156101a3578082015181840152602081019050610188565b50505050905090810190601f1680156101d05780820380516001836020036101000a031916815260200191505b509250505060405180910390f35b3480156101ea57600080fd5b506102b76004803603604081101561020157600080fd5b810190808035906020019064010000000081111561021e57600080fd5b82018360208201111561023057600080fd5b8035906020019184600183028401116401000000008311171561025257600080fd5b90919293919293908035906020019064010000000081111561027357600080fd5b82018360208201111561028557600080fd5b803590602001918460018302840111640100000000831117156102a757600080fd5b909192939192939050505061076c565b005b3480156102c557600080fd5b506103c6600480360360a08110156102dc57600080fd5b81019080803573ffffffffffffffffffffffffffffffffffffffff1690602001909291908035906020019064010000000081111561031957600080fd5b82018360208201111561032b57600080fd5b8035906020019184600183028401116401000000008311171561034d57600080fd5b90919293919293908035906020019064010000000081111561036e57600080fd5b82018360208201111561038057600080fd5b803590602001918460018302840111640100000000831117156103a257600080fd5b90919293919293908035906020019092919080359060200190929190505050610a3b565b6040518082815260200191505060405180910390f35b3480156103e857600080fd5b506104c2600480360360408110156103ff57600080fd5b81019080803573ffffffffffffffffffffffffffffffffffffffff1690602001909291908035906020019064010000000081111561043c57600080fd5b82018360208201111561044e57600080fd5b8035906020019184600183028401116401000000008311171561047057600080fd5b91908080601f016020809104026020016040519081016040528093929190818152602001838380828437600081840152601f19601f820116905080830192505050505050509192919290505050611210565b005b3480156104d057600080fd5b506104fd600480360360208110156104e757600080fd5b81019080803590602001909291905050506116ca565b604051808773ffffffffffffffffffffffffffffffffffffffff1673ffffffffffffffffffffffffffffffffffffffff1681526020018060200180602001868152602001858152602001848152602001838103835288818151815260200191508051906020019080838360005b8381101561058557808201518184015260208101905061056a565b50505050905090810190601f1680156105b25780820380516001836020036101000a031916815260200191505b50838103825287818151815260200191508051906020019080838360005b838110156105eb5780820151818401526020810190506105d0565b50505050905090810190601f1680156106185780820380516001836020036101000a031916815260200191505b509850505050505050505060405180910390f35b34801561063857600080fd5b5061067b6004803603602081101561064f57600080fd5b81019080803573ffffffffffffffffffffffffffffffffffffffff1690602001909291905050506118f9565b005b6000809054906101000a900473ffffffffffffffffffffffffffffffffffffffff1681565b60606004838360405180838380828437808301925050509250505090815260200160405180910390208054600181600116156101000203166002900480601f01602080910402602001604051908101604052809291908181526020018280546001816001161561010002031660029004801561075f5780601f106107345761010080835404028352916020019161075f565b820191906000526020600020905b81548152906001019060200180831161074257829003601f168201915b5050505050905092915050565b6040516020018080602001828103825260018152602001807f420000000000000000000000000000000000000000000000000000000000000081525060200191505060405160208183030381529060405280519060200120600260003373ffffffffffffffffffffffffffffffffffffffff1673ffffffffffffffffffffffffffffffffffffffff168152602001908152602001600020604051602001808060200182810382528381815460018160011615610100020316600290048152602001915080546001816001161561010002031660029004801561088f5780601f106108645761010080835404028352916020019161088f565b820191906000526020600020905b81548152906001019060200180831161087257829003601f168201915b5050925050506040516020818303038152906040528051906020012014806109f357506040516020018080602001828103825260018152602001807f410000000000000000000000000000000000000000000000000000000000000081525060200191505060405160208183030381529060405280519060200120600260003373ffffffffffffffffffffffffffffffffffffffff1673ffffffffffffffffffffffffffffffffffffffff16815260200190815260200160002060405160200180806020018281038252838181546001816001161561010002031660029004815260200191508054600181600116156101000203166002900480156109d55780601f106109aa576101008083540402835291602001916109d5565b820191906000526020600020905b8154815290600101906020018083116109b857829003601f168201915b50509250505060405160208183030381529060405280519060200120145b15156109fe57600080fd5b81816004868660405180838380828437808301925050509250505090815260200160405180910390209190610a349291906119ce565b5050505050565b60006040516020018080602001828103825260018152602001807f440000000000000000000000000000000000000000000000000000000000000081525060200191505060405160208183030381529060405280519060200120600260003373ffffffffffffffffffffffffffffffffffffffff1673ffffffffffffffffffffffffffffffffffffffff1681526020019081526020016000206040516020018080602001828103825283818154600181600116156101000203166002900481526020019150805460018160011615610100020316600290048015610b605780601f10610b3557610100808354040283529160200191610b60565b820191906000526020600020905b815481529060010190602001808311610b4357829003601f168201915b505092505050604051602081830303815290604052805190602001201480610cc457506040516020018080602001828103825260018152602001807f430000000000000000000000000000000000000000000000000000000000000081525060200191505060405160208183030381529060405280519060200120600260003373ffffffffffffffffffffffffffffffffffffffff1673ffffffffffffffffffffffffffffffffffffffff1681526020019081526020016000206040516020018080602001828103825283818154600181600116156101000203166002900481526020019150805460018160011615610100020316600290048015610ca65780601f10610c7b57610100808354040283529160200191610ca6565b820191906000526020600020905b815481529060010190602001808311610c8957829003601f168201915b50509250505060405160208183030381529060405280519060200120145b80610e0b57506040516020018080602001828103825260018152602001807f420000000000000000000000000000000000000000000000000000000000000081525060200191505060405160208183030381529060405280519060200120600260003373ffffffffffffffffffffffffffffffffffffffff1673ffffffffffffffffffffffffffffffffffffffff1681526020019081526020016000206040516020018080602001828103825283818154600181600116156101000203166002900481526020019150805460018160011615610100020316600290048015610ded5780601f10610dc257610100808354040283529160200191610ded565b820191906000526020600020905b815481529060010190602001808311610dd057829003601f168201915b50509250505060405160208183030381529060405280519060200120145b80610f5257506040516020018080602001828103825260018152602001807f410000000000000000000000000000000000000000000000000000000000000081525060200191505060405160208183030381529060405280519060200120600260003373ffffffffffffffffffffffffffffffffffffffff1673ffffffffffffffffffffffffffffffffffffffff1681526020019081526020016000206040516020018080602001828103825283818154600181600116156101000203166002900481526020019150805460018160011615610100020316600290048015610f345780601f10610f0957610100808354040283529160200191610f34565b820191906000526020600020905b815481529060010190602001808311610f1757829003601f168201915b50509250505060405160208183030381529060405280519060200120145b1515610f5d57600080fd5b60018054905090508082101515610f7357600080fd5b6000429050610f80611a4e565b60c0604051908101604052808b73ffffffffffffffffffffffffffffffffffffffff1681526020018a8a8080601f016020809104026020016040519081016040528093929190818152602001838380828437600081840152601f19601f82011690508083019250505050505050815260200188888080601f016020809104026020016040519081016040528093929190818152602001838380828437600081840152601f19601f8201169050808301925050505050505081526020018681526020018581526020018381525090506001819080600181540180825580915050906001820390600052602060002090600602016000909192909190915060008201518160000160006101000a81548173ffffffffffffffffffffffffffffffffffffffff021916908373ffffffffffffffffffffffffffffffffffffffff16021790555060208201518160010190805190602001906110df929190611a9b565b5060408201518160020190805190602001906110fc929190611a9b565b50606082015181600301556080820151816004015560a0820151816005015550505083847f36b2bb56b7d3a0c8f623772795fd2312f550bb3013f97b17b8f61512449bd64f858d8d8d8d8d8d8b604051808981526020018873ffffffffffffffffffffffffffffffffffffffff1673ffffffffffffffffffffffffffffffffffffffff16815260200180602001806020018581526020018481526020018381038352898982818152602001925080828437600081840152601f19601f8201169050808301925050508381038252878782818152602001925080828437600081840152601f19601f8201169050808301925050509a505050505050505050505060405180910390a35050979650505050505050565b6000809054906101000a900473ffffffffffffffffffffffffffffffffffffffff1673ffffffffffffffffffffffffffffffffffffffff163373ffffffffffffffffffffffffffffffffffffffff1614151561126b57600080fd5b6037600360009054906101000a900460ff1660ff1610151561128c57600080fd5b6040516020018080602001828103825260018152602001807f410000000000000000000000000000000000000000000000000000000000000081525060200191505060405160208183030381529060405280519060200120816040516020018080602001828103825283818151815260200191508051906020019080838360005b8381101561132857808201518184015260208101905061130d565b50505050905090810190601f1680156113555780820380516001836020036101000a031916815260200191505b509250505060405160208183030381529060405280519060200120148061145d57506040516020018080602001828103825260018152602001807f420000000000000000000000000000000000000000000000000000000000000081525060200191505060405160208183030381529060405280519060200120816040516020018080602001828103825283818151815260200191508051906020019080838360005b838110156114135780820151818401526020810190506113f8565b50505050905090810190601f1680156114405780820380516001836020036101000a031916815260200191505b509250505060405160208183030381529060405280519060200120145b8061154957506040516020018080602001828103825260018152602001807f430000000000000000000000000000000000000000000000000000000000000081525060200191505060405160208183030381529060405280519060200120816040516020018080602001828103825283818151815260200191508051906020019080838360005b838110156114ff5780820151818401526020810190506114e4565b50505050905090810190601f16801561152c5780820380516001836020036101000a031916815260200191505b509250505060405160208183030381529060405280519060200120145b8061163557506040516020018080602001828103825260018152602001807f440000000000000000000000000000000000000000000000000000000000000081525060200191505060405160208183030381529060405280519060200120816040516020018080602001828103825283818151815260200191508051906020019080838360005b838110156115eb5780820151818401526020810190506115d0565b50505050905090810190601f1680156116185780820380516001836020036101000a031916815260200191505b509250505060405160208183030381529060405280519060200120145b151561164057600080fd5b6003600081819054906101000a900460ff168092919060010191906101000a81548160ff021916908360ff1602179055505080600260008473ffffffffffffffffffffffffffffffffffffffff1673ffffffffffffffffffffffffffffffffffffffff16815260200190815260200160002090805190602001906116c5929190611b1b565b505050565b600060608060008060006116dc611a4e565b6001888154811015156116eb57fe5b906000526020600020906006020160c060405190810160405290816000820160009054906101000a900473ffffffffffffffffffffffffffffffffffffffff1673ffffffffffffffffffffffffffffffffffffffff1673ffffffffffffffffffffffffffffffffffffffff168152602001600182018054600181600116156101000203166002900480601f0160208091040260200160405190810160405280929190818152602001828054600181600116156101000203166002900480156117f45780601f106117c9576101008083540402835291602001916117f4565b820191906000526020600020905b8154815290600101906020018083116117d757829003601f168201915b50505050508152602001600282018054600181600116156101000203166002900480601f0160208091040260200160405190810160405280929190818152602001828054600181600116156101000203166002900480156118965780601f1061186b57610100808354040283529160200191611896565b820191906000526020600020905b81548152906001019060200180831161187957829003601f168201915b5050505050815260200160038201548152602001600482015481526020016005820154815250509050806000015181602001518260400151836060015184608001518560a001518494508393509650965096509650965096505091939550919395565b6000809054906101000a900473ffffffffffffffffffffffffffffffffffffffff1673ffffffffffffffffffffffffffffffffffffffff163373ffffffffffffffffffffffffffffffffffffffff1614151561195457600080fd5b600073ffffffffffffffffffffffffffffffffffffffff168173ffffffffffffffffffffffffffffffffffffffff161415156119cb57806000806101000a81548173ffffffffffffffffffffffffffffffffffffffff021916908373ffffffffffffffffffffffffffffffffffffffff1602179055505b50565b828054600181600116156101000203166002900490600052602060002090601f016020900481019282601f10611a0f57803560ff1916838001178555611a3d565b82800160010185558215611a3d579182015b82811115611a3c578235825591602001919060010190611a21565b5b509050611a4a9190611b9b565b5090565b60c060405190810160405280600073ffffffffffffffffffffffffffffffffffffffff16815260200160608152602001606081526020016000815260200160008152602001600081525090565b828054600181600116156101000203166002900490600052602060002090601f016020900481019282601f10611adc57805160ff1916838001178555611b0a565b82800160010185558215611b0a579182015b82811115611b09578251825591602001919060010190611aee565b5b509050611b179190611b9b565b5090565b828054600181600116156101000203166002900490600052602060002090601f016020900481019282601f10611b5c57805160ff1916838001178555611b8a565b82800160010185558215611b8a579182015b82811115611b89578251825591602001919060010190611b6e565b5b509050611b979190611b9b565b5090565b611bbd91905b80821115611bb9576000816000905550600101611ba1565b5090565b9056fea165627a7a72305820cb5330dc9d7c2cd9e48e2abae386d7a386a8eb11fa4425eb6e70a2e1611b048b0029",
  "source": "pragma solidity >=0.4.21 <0.6.0;\n\nimport \"./Ownable.sol\";\n\ncontract KYC is Ownable {\n\n    event ReportedFraud(\n        uint256 indexed error,\n        uint256 fraudID,\n        address bank,\n        string accountNumber,\n        string routingNumber,\n        uint256 amount,\n        uint256 indexed fromID,\n        uint256 time\n    );\n\n    struct Fraud {\n        address bank;\n        string accountNumber;\n        string routingNumber;\n        uint256 amount;\n        uint256 fromID;\n        uint256 timestamp;\n    }\n    \n    Fraud[] frauds;\n\n    //member => role\n    mapping (address => string) members;\n    uint8 numberOfMembers;\n    \n    //clientName => clientAddress\n    mapping (string => string) clients;\n\n    constructor() public {\n        //push fraud origin\n        frauds.push(Fraud(address(0x0), \"\", \"\", 0, 0, 0));\n    }\n\n    modifier classA () {\n        require (keccak256(abi.encode(members[msg.sender])) == keccak256(abi.encode(\"A\"))); \n        _;\n    }\n\n    modifier classB () {\n        require (keccak256(abi.encode(members[msg.sender])) == keccak256(abi.encode(\"B\")) || keccak256(abi.encode(members[msg.sender])) == keccak256(abi.encode(\"A\"))); \n        _;\n    }\n\n    modifier classC () {\n        require (keccak256(abi.encode(members[msg.sender])) == keccak256(abi.encode(\"C\")) || keccak256(abi.encode(members[msg.sender])) == keccak256(abi.encode(\"B\")) || keccak256(abi.encode(members[msg.sender])) == keccak256(abi.encode(\"A\"))); \n        _; \n    }\n\n    modifier classD () {\n        require (keccak256(abi.encode(members[msg.sender])) == keccak256(abi.encode(\"D\")) || keccak256(abi.encode(members[msg.sender])) == keccak256(abi.encode(\"C\")) || keccak256(abi.encode(members[msg.sender])) == keccak256(abi.encode(\"B\")) || keccak256(abi.encode(members[msg.sender])) == keccak256(abi.encode(\"A\"))); \n        _; \n    }\n\n    function addMember (address member, string memory role) public onlyOwner {\n        //total members\n        require (numberOfMembers < 55);\n\n        //assigned role must exist\n        require (keccak256(abi.encode(role)) == keccak256(abi.encode(\"A\")) || keccak256(abi.encode(role)) == keccak256(abi.encode(\"B\")) || keccak256(abi.encode(role)) == keccak256(abi.encode(\"C\")) || keccak256(abi.encode(role)) == keccak256(abi.encode(\"D\")));\n        \n        numberOfMembers++;\n        members[member] = role;\n    }\n\n    function addClient (string calldata name, string calldata addr) external classB { clients[name] = addr; }\n\n    function getClientAddr (string calldata name) external view returns(string memory addr) { return clients[name]; }\n\n    function reportFraud (address bank, string calldata accountNumber, string calldata routingNumber, uint256 amount, uint256 fromID) external classD returns(uint256 fraudID) {\n        fraudID = frauds.length;\n        require (fromID < fraudID);\n\n        uint256 time = now;\n\n        Fraud memory fraud = Fraud(bank, accountNumber, routingNumber, amount, fromID, time);\n        frauds.push(fraud);\n\n        emit ReportedFraud(fromID, fraudID, bank, accountNumber, routingNumber, amount, fromID, time);\n    }\n\n    function readFraud (uint256 fraudID) external view returns(address, string memory, string memory, uint256, uint256, uint256) {\n        Fraud memory fraud = frauds[fraudID];\n        return(fraud.bank, fraud.accountNumber, fraud.routingNumber, fraud.amount, fraud.fromID, fraud.timestamp);\n    }   \n\n\n}",
  "sourcePath": "/Users/dylanbeckwith/Desktop/PIE/contracts/KYC.sol",
  "compiler": {
    "name": "solc",
    "version": "0.5.0+commit.1d4f565a.Emscripten.clang"
  },
  "schemaVersion": "3.0.0",
  "updatedAt": "2019-03-01T16:54:30.227Z",
  "devdoc": {
    "methods": {
      "transferOwnership(address)": {
        "details": "Allows the current owner to transfer control of the contract to a newOwner.",
        "params": {
          "newOwner": "The address to transfer ownership to."
        }
      }
    }
  },
  "userdoc": {
    "methods": {}
  }
}